{
  "transactions": [
    {
      "hash": "0x185e549698ad2b051fa70342886bba4d76741dd7dc3255cab6ae2f1c3c60e04e",
      "transactionType": "CALL",
      "contractName": null,
      "contractAddress": "0x4c956ed76dbe238507c06d7764440c2977cd5275",
      "function": "setPeer(uint32,bytes32)",
      "arguments": [
        "40161",
        "0x000000000000000000000000fd1411e2e3ddfc0c68649d3feb1be50c6d599ebd"
      ],
      "transaction": {
        "from": "0xa58dccb0f17279abd1d0d9069aa8711df4a4c58e",
        "to": "0x4c956ed76dbe238507c06d7764440c2977cd5275",
        "gas": "0x10075",
        "value": "0x0",
        "input": "0x3400288b0000000000000000000000000000000000000000000000000000000000009ce1000000000000000000000000fd1411e2e3ddfc0c68649d3feb1be50c6d599ebd",
        "nonce": "0x279a",
        "chainId": "0xa869"
      },
      "additionalContracts": [],
      "isFixedGasLimit": false
    }
  ],
  "receipts": [
    {
      "status": "0x1",
      "cumulativeGasUsed": "0xb9ad",
      "logs": [
        {
          "address": "0x4c956ed76dbe238507c06d7764440c2977cd5275",
          "topics": [
            "0x238399d427b947898edb290f5ff0f9109849b1c3ba196a42e35f00c50a54b98b"
          ],
          "data": "0x0000000000000000000000000000000000000000000000000000000000009ce1000000000000000000000000fd1411e2e3ddfc0c68649d3feb1be50c6d599ebd",
          "blockHash": "0x4effd6d6ce237af49138a82f1c68fb7c839b08de1c4cd11e0f6b6e657185ce9c",
          "blockNumber": "0x2dbec37",
          "transactionHash": "0x185e549698ad2b051fa70342886bba4d76741dd7dc3255cab6ae2f1c3c60e04e",
          "transactionIndex": "0x0",
          "logIndex": "0x0",
          "removed": false
        }
      ],
      "logsBloom": "0x00000000000000000000000000000000400000000000000000000000000000000000000000000000000000000000000000000000000000000800000000000000000000000000080000000000000000000000000000000000000000000000000000000000000000000000000000000000000000000000000000000000000000000000000000000000000000000000000000000000000000000000000000000000000000000000000000000000000000000000000000000000000002000000000000000000000000000000000000000000000000400000000000040000000000000000000000000000000000000000000000000000000000000000000000000000",
      "type": "0x2",
      "transactionHash": "0x185e549698ad2b051fa70342886bba4d76741dd7dc3255cab6ae2f1c3c60e04e",
      "transactionIndex": "0x0",
      "blockHash": "0x4effd6d6ce237af49138a82f1c68fb7c839b08de1c4cd11e0f6b6e657185ce9c",
      "blockNumber": "0x2dbec37",
      "gasUsed": "0xb9ad",
      "effectiveGasPrice": "0x861c4681",
      "from": "0xa58dccb0f17279abd1d0d9069aa8711df4a4c58e",
      "to": "0x4c956ed76dbe238507c06d7764440c2977cd5275",
      "contractAddress": null
    }
  ],
  "libraries": [],
  "pending": [],
  "returns": {},
  "timestamp": 1763839951658,
  "chain": 43113,
  "commit": "d5369df"
}