{
  "transactions": [
    {
      "hash": "0x9c7b28f8bb3ec898729cf529bea7666273dfa9f961a907cc5f58f5f9b9b2c133",
      "transactionType": "CALL",
      "contractName": null,
      "contractAddress": "0xe523fc1cc80a6ef2f643895b556cf43a1f1bcf60",
      "function": "approve(address,uint256)",
      "arguments": [
        "0xfd1411e2e3ddfC0C68649d3FEb1bE50C6d599EBd",
        "10000000000000000000"
      ],
      "transaction": {
        "from": "0xa58dccb0f17279abd1d0d9069aa8711df4a4c58e",
        "to": "0xe523fc1cc80a6ef2f643895b556cf43a1f1bcf60",
        "gas": "0xf843",
        "value": "0x0",
        "input": "0x095ea7b3000000000000000000000000fd1411e2e3ddfc0c68649d3feb1be50c6d599ebd0000000000000000000000000000000000000000000000008ac7230489e80000",
        "nonce": "0x4",
        "chainId": "0xaa36a7"
      },
      "additionalContracts": [],
      "isFixedGasLimit": false
    }
  ],
  "receipts": [
    {
      "status": "0x1",
      "cumulativeGasUsed": "0xbb40e5",
      "logs": [
        {
          "address": "0xe523fc1cc80a6ef2f643895b556cf43a1f1bcf60",
          "topics": [
            "0x8c5be1e5ebec7d5bd14f71427d1e84f3dd0314c0f7b2291e5b200ac8c7c3b925",
            "0x000000000000000000000000a58dccb0f17279abd1d0d9069aa8711df4a4c58e",
            "0x000000000000000000000000fd1411e2e3ddfc0c68649d3feb1be50c6d599ebd"
          ],
          "data": "0x0000000000000000000000000000000000000000000000008ac7230489e80000",
          "blockHash": "0x3794436af4ea2881467bfbff00d824a16c1af4e2727b498b4013c6effe2eb7b4",
          "blockNumber": "0x93c76e",
          "blockTimestamp": "0x69221094",
          "transactionHash": "0x9c7b28f8bb3ec898729cf529bea7666273dfa9f961a907cc5f58f5f9b9b2c133",
          "transactionIndex": "0x4d",
          "logIndex": "0xa0",
          "removed": false
        }
      ],
      "logsBloom": "0x00000000000000000000000000000000000000000000000000000001000010000000000000000000000000000000000000000000000000000000000000200000000000000000000000000000000000000000000000000000001000000000800000000000000000000000000000000000000000000000000000000000000000000000000000000000000000004000000000000000000000000000000000000000020000000000000000000000000000040000000000000000800000000000000000000000000000000000000000100000000000000000000400000000000000000010000000000000000000000000000000000000000000000000000000000000",
      "type": "0x2",
      "transactionHash": "0x9c7b28f8bb3ec898729cf529bea7666273dfa9f961a907cc5f58f5f9b9b2c133",
      "transactionIndex": "0x4d",
      "blockHash": "0x3794436af4ea2881467bfbff00d824a16c1af4e2727b498b4013c6effe2eb7b4",
      "blockNumber": "0x93c76e",
      "gasUsed": "0xb3be",
      "effectiveGasPrice": "0xf424a",
      "from": "0xa58dccb0f17279abd1d0d9069aa8711df4a4c58e",
      "to": "0xe523fc1cc80a6ef2f643895b556cf43a1f1bcf60",
      "contractAddress": null
    }
  ],
  "libraries": [],
  "pending": [],
  "returns": {},
  "timestamp": 1763840148915,
  "chain": 11155111,
  "commit": "d5369df"
}