{
  "transactions": [
    {
      "hash": "0xb6b163eb008130bd824665e000db85decf6a41c77bf29c96425a1dd2c4da4f44",
      "transactionType": "CALL",
      "contractName": null,
      "contractAddress": "0xfd1411e2e3ddfc0c68649d3feb1be50c6d599ebd",
      "function": "setPeer(uint32,bytes32)",
      "arguments": [
        "40106",
        "0x0000000000000000000000004c956ed76dbe238507c06d7764440c2977cd5275"
      ],
      "transaction": {
        "from": "0xa58dccb0f17279abd1d0d9069aa8711df4a4c58e",
        "to": "0xfd1411e2e3ddfc0c68649d3feb1be50c6d599ebd",
        "gas": "0x10054",
        "value": "0x0",
        "input": "0x3400288b0000000000000000000000000000000000000000000000000000000000009caa0000000000000000000000004c956ed76dbe238507c06d7764440c2977cd5275",
        "nonce": "0x2",
        "chainId": "0xaa36a7"
      },
      "additionalContracts": [],
      "isFixedGasLimit": false
    }
  ],
  "receipts": [
    {
      "status": "0x1",
      "cumulativeGasUsed": "0xdc9c79",
      "logs": [
        {
          "address": "0xfd1411e2e3ddfc0c68649d3feb1be50c6d599ebd",
          "topics": [
            "0x238399d427b947898edb290f5ff0f9109849b1c3ba196a42e35f00c50a54b98b"
          ],
          "data": "0x0000000000000000000000000000000000000000000000000000000000009caa0000000000000000000000004c956ed76dbe238507c06d7764440c2977cd5275",
          "blockHash": "0x57f75d3d0f49379ee02fa37e2c7b5245d2865c8ae20403fa9d2951bd444b4b4d",
          "blockNumber": "0x93c75b",
          "blockTimestamp": "0x69220fb0",
          "transactionHash": "0xb6b163eb008130bd824665e000db85decf6a41c77bf29c96425a1dd2c4da4f44",
          "transactionIndex": "0x38",
          "logIndex": "0x16c",
          "removed": false
        }
      ],
      "logsBloom": "0x00000000000000000000000000000000000000000000000000000000000000000000000000000000000000000000000000000000000000000800000001000000000000000000000000000000000000000000000000000000000000000000000000000001000000000000000000000000000000000000000000000000002000000000000000000000000000000000000000000000000000000000000000000000000000000000000000000000000000000000000000000000000002000000000000000000000000000000000000000000000000000000000000040000000000000000000000000000000000000000000000000000000000000000000000000000",
      "type": "0x2",
      "transactionHash": "0xb6b163eb008130bd824665e000db85decf6a41c77bf29c96425a1dd2c4da4f44",
      "transactionIndex": "0x38",
      "blockHash": "0x57f75d3d0f49379ee02fa37e2c7b5245d2865c8ae20403fa9d2951bd444b4b4d",
      "blockNumber": "0x93c75b",
      "gasUsed": "0xb994",
      "effectiveGasPrice": "0xf424a",
      "from": "0xa58dccb0f17279abd1d0d9069aa8711df4a4c58e",
      "to": "0xfd1411e2e3ddfc0c68649d3feb1be50c6d599ebd",
      "contractAddress": null
    }
  ],
  "libraries": [],
  "pending": [],
  "returns": {},
  "timestamp": 1763839922675,
  "chain": 11155111,
  "commit": "d5369df"
}